{
  "_format": "hh-sol-artifact-1",
  "contractName": "Accounts",
  "sourceName": "contracts/Accounts.sol",
  "abi": [
    {
      "inputs": [],
      "stateMutability": "nonpayable",
      "type": "constructor"
    },
    {
      "anonymous": false,
      "inputs": [
        {
          "indexed": false,
          "internalType": "address",
          "name": "user",
          "type": "address"
        }
      ],
      "name": "AccountAdded",
      "type": "event"
    },
    {
      "anonymous": false,
      "inputs": [
        {
          "indexed": false,
          "internalType": "address",
          "name": "user",
          "type": "address"
        }
      ],
      "name": "AccountDeleted",
      "type": "event"
    },
    {
      "anonymous": false,
      "inputs": [
        {
          "indexed": false,
          "internalType": "address",
          "name": "user",
          "type": "address"
        }
      ],
      "name": "AccountUpdated",
      "type": "event"
    },
    {
      "inputs": [
        {
          "internalType": "address",
          "name": "",
          "type": "address"
        }
      ],
      "name": "accounts",
      "outputs": [
        {
          "internalType": "string",
          "name": "displayName",
          "type": "string"
        },
        {
          "internalType": "string",
          "name": "phoneNumber",
          "type": "string"
        },
        {
          "internalType": "string",
          "name": "email",
          "type": "string"
        },
        {
          "internalType": "string",
          "name": "photoURL",
          "type": "string"
        },
        {
          "internalType": "string",
          "name": "role",
          "type": "string"
        },
        {
          "internalType": "bool",
          "name": "isActive",
          "type": "bool"
        },
        {
          "internalType": "bool",
          "name": "isActivated",
          "type": "bool"
        },
        {
          "internalType": "address",
          "name": "affiliate",
          "type": "address"
        }
      ],
      "stateMutability": "view",
      "type": "function"
    },
    {
      "inputs": [
        {
          "internalType": "address",
          "name": "_address",
          "type": "address"
        },
        {
          "internalType": "address",
          "name": "affiliate",
          "type": "address"
        },
        {
          "internalType": "string",
          "name": "displayName",
          "type": "string"
        },
        {
          "internalType": "string",
          "name": "email",
          "type": "string"
        },
        {
          "internalType": "string",
          "name": "phoneNumber",
          "type": "string"
        },
        {
          "internalType": "string",
          "name": "photoURL",
          "type": "string"
        },
        {
          "internalType": "string",
          "name": "role",
          "type": "string"
        },
        {
          "internalType": "bool",
          "name": "isActive",
          "type": "bool"
        },
        {
          "internalType": "bool",
          "name": "isActivated",
          "type": "bool"
        }
      ],
      "name": "addAccount",
      "outputs": [
        {
          "internalType": "bool",
          "name": "",
          "type": "bool"
        }
      ],
      "stateMutability": "payable",
      "type": "function"
    },
    {
      "inputs": [
        {
          "internalType": "address",
          "name": "_address",
          "type": "address"
        }
      ],
      "name": "getAccount",
      "outputs": [
        {
          "components": [
            {
              "internalType": "string",
              "name": "displayName",
              "type": "string"
            },
            {
              "internalType": "string",
              "name": "phoneNumber",
              "type": "string"
            },
            {
              "internalType": "string",
              "name": "email",
              "type": "string"
            },
            {
              "internalType": "string",
              "name": "photoURL",
              "type": "string"
            },
            {
              "internalType": "string",
              "name": "role",
              "type": "string"
            },
            {
              "internalType": "bool",
              "name": "isActive",
              "type": "bool"
            },
            {
              "internalType": "bool",
              "name": "isActivated",
              "type": "bool"
            },
            {
              "internalType": "address",
              "name": "affiliate",
              "type": "address"
            }
          ],
          "internalType": "struct Accounts.Account",
          "name": "",
          "type": "tuple"
        }
      ],
      "stateMutability": "view",
      "type": "function"
    },
    {
      "inputs": [],
      "name": "kill",
      "outputs": [],
      "stateMutability": "payable",
      "type": "function"
    },
    {
      "inputs": [
        {
          "internalType": "address",
          "name": "_address",
          "type": "address"
        },
        {
          "internalType": "string",
          "name": "displayName",
          "type": "string"
        },
        {
          "internalType": "string",
          "name": "email",
          "type": "string"
        },
        {
          "internalType": "string",
          "name": "phoneNumber",
          "type": "string"
        },
        {
          "internalType": "string",
          "name": "photoURL",
          "type": "string"
        },
        {
          "internalType": "bool",
          "name": "isActive",
          "type": "bool"
        }
      ],
      "name": "updateAccount",
      "outputs": [
        {
          "internalType": "bool",
          "name": "",
          "type": "bool"
        }
      ],
      "stateMutability": "payable",
      "type": "function"
    }
  ],
  "bytecode": "0x608060405234801561001057600080fd5b50336000806101000a81548173ffffffffffffffffffffffffffffffffffffffff021916908373ffffffffffffffffffffffffffffffffffffffff160217905550611c02806100606000396000f3fe60806040526004361061004a5760003560e01c806341c0e1b51461004f5780635e5c06e214610059578063c29265f61461009d578063e8dac4b2146100cd578063fbcbc0f1146100fd575b600080fd5b61005761013a565b005b34801561006557600080fd5b50610080600480360381019061007b91906112de565b610201565b6040516100949897969594939291906117f0565b60405180910390f35b6100b760048036038101906100b29190611307565b61052b565b6040516100c491906117d5565b60405180910390f35b6100e760048036038101906100e29190611445565b61085d565b6040516100f491906117d5565b60405180910390f35b34801561010957600080fd5b50610124600480360381019061011f91906112de565b610c95565b6040516101319190611906565b60405180910390f35b60008054906101000a900473ffffffffffffffffffffffffffffffffffffffff1673ffffffffffffffffffffffffffffffffffffffff163373ffffffffffffffffffffffffffffffffffffffff16146101c8576040517f08c379a00000000000000000000000000000000000000000000000000000000081526004016101bf906118c6565b60405180910390fd5b60008054906101000a900473ffffffffffffffffffffffffffffffffffffffff1673ffffffffffffffffffffffffffffffffffffffff16ff5b600160205280600052604060002060009150905080600001805461022490611a51565b80601f016020809104026020016040519081016040528092919081815260200182805461025090611a51565b801561029d5780601f106102725761010080835404028352916020019161029d565b820191906000526020600020905b81548152906001019060200180831161028057829003601f168201915b5050505050908060010180546102b290611a51565b80601f01602080910402602001604051908101604052809291908181526020018280546102de90611a51565b801561032b5780601f106103005761010080835404028352916020019161032b565b820191906000526020600020905b81548152906001019060200180831161030e57829003601f168201915b50505050509080600201805461034090611a51565b80601f016020809104026020016040519081016040528092919081815260200182805461036c90611a51565b80156103b95780601f1061038e576101008083540402835291602001916103b9565b820191906000526020600020905b81548152906001019060200180831161039c57829003601f168201915b5050505050908060030180546103ce90611a51565b80601f01602080910402602001604051908101604052809291908181526020018280546103fa90611a51565b80156104475780601f1061041c57610100808354040283529160200191610447565b820191906000526020600020905b81548152906001019060200180831161042a57829003601f168201915b50505050509080600401805461045c90611a51565b80601f016020809104026020016040519081016040528092919081815260200182805461048890611a51565b80156104d55780601f106104aa576101008083540402835291602001916104d5565b820191906000526020600020905b8154815290600101906020018083116104b857829003601f168201915b5050505050908060050160009054906101000a900460ff16908060050160019054906101000a900460ff16908060050160029054906101000a900473ffffffffffffffffffffffffffffffffffffffff16905088565b60007f8f42195a0bbfa58954be4349deb9efc38bdb9c298e529f705f8bc1e38bce03998a60405161055c91906117ba565b60405180910390a187600160008c73ffffffffffffffffffffffffffffffffffffffff1673ffffffffffffffffffffffffffffffffffffffff16815260200190815260200160002060000190805190602001906105ba929190611135565b5086600160008c73ffffffffffffffffffffffffffffffffffffffff1673ffffffffffffffffffffffffffffffffffffffff1681526020019081526020016000206002019080519060200190610611929190611135565b5085600160008c73ffffffffffffffffffffffffffffffffffffffff1673ffffffffffffffffffffffffffffffffffffffff1681526020019081526020016000206001019080519060200190610668929190611135565b5084600160008c73ffffffffffffffffffffffffffffffffffffffff1673ffffffffffffffffffffffffffffffffffffffff16815260200190815260200160002060030190805190602001906106bf929190611135565b5083600160008c73ffffffffffffffffffffffffffffffffffffffff1673ffffffffffffffffffffffffffffffffffffffff1681526020019081526020016000206004019080519060200190610716929190611135565b5081600160008c73ffffffffffffffffffffffffffffffffffffffff1673ffffffffffffffffffffffffffffffffffffffff16815260200190815260200160002060050160016101000a81548160ff02191690831515021790555082600160008c73ffffffffffffffffffffffffffffffffffffffff1673ffffffffffffffffffffffffffffffffffffffff16815260200190815260200160002060050160006101000a81548160ff02191690831515021790555088600160008c73ffffffffffffffffffffffffffffffffffffffff1673ffffffffffffffffffffffffffffffffffffffff16815260200190815260200160002060050160026101000a81548173ffffffffffffffffffffffffffffffffffffffff021916908373ffffffffffffffffffffffffffffffffffffffff160217905550600190509998505050505050505050565b600033600073ffffffffffffffffffffffffffffffffffffffff16600160008373ffffffffffffffffffffffffffffffffffffffff1673ffffffffffffffffffffffffffffffffffffffff16815260200190815260200160002060050160029054906101000a900473ffffffffffffffffffffffffffffffffffffffff1673ffffffffffffffffffffffffffffffffffffffff161415610932576040517f08c379a0000000000000000000000000000000000000000000000000000000008152600401610929906118e6565b60405180910390fd5b7fe7b1fae3a790ceab07642c09617df79428b02832cd512bbfdd4db50272dcdf308860405161096191906117ba565b60405180910390a186600160008a73ffffffffffffffffffffffffffffffffffffffff1673ffffffffffffffffffffffffffffffffffffffff16815260200190815260200160002060000190805190602001906109bf929190611135565b5085600160008a73ffffffffffffffffffffffffffffffffffffffff1673ffffffffffffffffffffffffffffffffffffffff1681526020019081526020016000206002019080519060200190610a16929190611135565b5084600160008a73ffffffffffffffffffffffffffffffffffffffff1673ffffffffffffffffffffffffffffffffffffffff1681526020019081526020016000206001019080519060200190610a6d929190611135565b5083600160008a73ffffffffffffffffffffffffffffffffffffffff1673ffffffffffffffffffffffffffffffffffffffff1681526020019081526020016000206003019080519060200190610ac4929190611135565b5073__$1c41232b8c3f9382c4bdca1a05a1ab00e7$__63465c4105600160003373ffffffffffffffffffffffffffffffffffffffff1673ffffffffffffffffffffffffffffffffffffffff1681526020019081526020016000206004016040518263ffffffff1660e01b8152600401610b3d9190611891565b60206040518083038186803b158015610b5557600080fd5b505af4158015610b69573d6000803e3d6000fd5b505050506040513d601f19601f82011682018060405250810190610b8d919061152e565b8015610c2657503373ffffffffffffffffffffffffffffffffffffffff16600160008a73ffffffffffffffffffffffffffffffffffffffff1673ffffffffffffffffffffffffffffffffffffffff16815260200190815260200160002060050160029054906101000a900473ffffffffffffffffffffffffffffffffffffffff1673ffffffffffffffffffffffffffffffffffffffff16145b15610c865782600160008a73ffffffffffffffffffffffffffffffffffffffff1673ffffffffffffffffffffffffffffffffffffffff16815260200190815260200160002060050160006101000a81548160ff0219169083151502179055505b60019150509695505050505050565b610c9d6111bb565b81600073ffffffffffffffffffffffffffffffffffffffff16600160008373ffffffffffffffffffffffffffffffffffffffff1673ffffffffffffffffffffffffffffffffffffffff16815260200190815260200160002060050160029054906101000a900473ffffffffffffffffffffffffffffffffffffffff1673ffffffffffffffffffffffffffffffffffffffff161415610d70576040517f08c379a0000000000000000000000000000000000000000000000000000000008152600401610d67906118e6565b60405180910390fd5b610d786111bb565b600160008573ffffffffffffffffffffffffffffffffffffffff1673ffffffffffffffffffffffffffffffffffffffff16815260200190815260200160002060405180610100016040529081600082018054610dd390611a51565b80601f0160208091040260200160405190810160405280929190818152602001828054610dff90611a51565b8015610e4c5780601f10610e2157610100808354040283529160200191610e4c565b820191906000526020600020905b815481529060010190602001808311610e2f57829003601f168201915b50505050508152602001600182018054610e6590611a51565b80601f0160208091040260200160405190810160405280929190818152602001828054610e9190611a51565b8015610ede5780601f10610eb357610100808354040283529160200191610ede565b820191906000526020600020905b815481529060010190602001808311610ec157829003601f168201915b50505050508152602001600282018054610ef790611a51565b80601f0160208091040260200160405190810160405280929190818152602001828054610f2390611a51565b8015610f705780601f10610f4557610100808354040283529160200191610f70565b820191906000526020600020905b815481529060010190602001808311610f5357829003601f168201915b50505050508152602001600382018054610f8990611a51565b80601f0160208091040260200160405190810160405280929190818152602001828054610fb590611a51565b80156110025780601f10610fd757610100808354040283529160200191611002565b820191906000526020600020905b815481529060010190602001808311610fe557829003601f168201915b5050505050815260200160048201805461101b90611a51565b80601f016020809104026020016040519081016040528092919081815260200182805461104790611a51565b80156110945780601f1061106957610100808354040283529160200191611094565b820191906000526020600020905b81548152906001019060200180831161107757829003601f168201915b505050505081526020016005820160009054906101000a900460ff161515151581526020016005820160019054906101000a900460ff161515151581526020016005820160029054906101000a900473ffffffffffffffffffffffffffffffffffffffff1673ffffffffffffffffffffffffffffffffffffffff1673ffffffffffffffffffffffffffffffffffffffff168152505090508092505050919050565b82805461114190611a51565b90600052602060002090601f01602090048101928261116357600085556111aa565b82601f1061117c57805160ff19168380011785556111aa565b828001600101855582156111aa579182015b828111156111a957825182559160200191906001019061118e565b5b5090506111b7919061121a565b5090565b6040518061010001604052806060815260200160608152602001606081526020016060815260200160608152602001600015158152602001600015158152602001600073ffffffffffffffffffffffffffffffffffffffff1681525090565b5b8082111561123357600081600090555060010161121b565b5090565b600061124a6112458461194d565b611928565b90508281526020810184848401111561126257600080fd5b61126d848285611a0f565b509392505050565b60008135905061128481611b9e565b92915050565b60008135905061129981611bb5565b92915050565b6000815190506112ae81611bb5565b92915050565b600082601f8301126112c557600080fd5b81356112d5848260208601611237565b91505092915050565b6000602082840312156112f057600080fd5b60006112fe84828501611275565b91505092915050565b60008060008060008060008060006101208a8c03121561132657600080fd5b60006113348c828d01611275565b99505060206113458c828d01611275565b98505060408a013567ffffffffffffffff81111561136257600080fd5b61136e8c828d016112b4565b97505060608a013567ffffffffffffffff81111561138b57600080fd5b6113978c828d016112b4565b96505060808a013567ffffffffffffffff8111156113b457600080fd5b6113c08c828d016112b4565b95505060a08a013567ffffffffffffffff8111156113dd57600080fd5b6113e98c828d016112b4565b94505060c08a013567ffffffffffffffff81111561140657600080fd5b6114128c828d016112b4565b93505060e06114238c828d0161128a565b9250506101006114358c828d0161128a565b9150509295985092959850929598565b60008060008060008060c0878903121561145e57600080fd5b600061146c89828a01611275565b965050602087013567ffffffffffffffff81111561148957600080fd5b61149589828a016112b4565b955050604087013567ffffffffffffffff8111156114b257600080fd5b6114be89828a016112b4565b945050606087013567ffffffffffffffff8111156114db57600080fd5b6114e789828a016112b4565b935050608087013567ffffffffffffffff81111561150457600080fd5b61151089828a016112b4565b92505060a061152189828a0161128a565b9150509295509295509295565b60006020828403121561154057600080fd5b600061154e8482850161129f565b91505092915050565b611560816119d1565b82525050565b61156f816119d1565b82525050565b61157e816119e3565b82525050565b61158d816119e3565b82525050565b600061159e82611993565b6115a8818561199e565b93506115b8818560208601611a1e565b6115c181611b12565b840191505092915050565b60006115d782611993565b6115e181856119af565b93506115f1818560208601611a1e565b6115fa81611b12565b840191505092915050565b6000815461161281611a51565b61161c81866119c0565b9450600182166000811461163757600181146116495761167c565b60ff198316865260208601935061167c565b6116528561197e565b60005b8381101561167457815481890152600182019150602081019050611655565b808801955050505b50505092915050565b6000611692600d836119af565b915061169d82611b23565b602082019050919050565b60006116b56006836119c0565b91506116c082611b4c565b602082019050919050565b60006116d86013836119af565b91506116e382611b75565b602082019050919050565b600061010083016000830151848203600086015261170c8282611593565b915050602083015184820360208601526117268282611593565b915050604083015184820360408601526117408282611593565b9150506060830151848203606086015261175a8282611593565b915050608083015184820360808601526117748282611593565b91505060a083015161178960a0860182611575565b5060c083015161179c60c0860182611575565b5060e08301516117af60e0860182611557565b508091505092915050565b60006020820190506117cf6000830184611566565b92915050565b60006020820190506117ea6000830184611584565b92915050565b600061010082019050818103600083015261180b818b6115cc565b9050818103602083015261181f818a6115cc565b9050818103604083015261183381896115cc565b9050818103606083015261184781886115cc565b9050818103608083015261185b81876115cc565b905061186a60a0830186611584565b61187760c0830185611584565b61188460e0830184611566565b9998505050505050505050565b600060408201905081810360008301526118ab8184611605565b905081810360208301526118be816116a8565b905092915050565b600060208201905081810360008301526118df81611685565b9050919050565b600060208201905081810360008301526118ff816116cb565b9050919050565b6000602082019050818103600083015261192081846116ee565b905092915050565b6000611932611943565b905061193e8282611a83565b919050565b6000604051905090565b600067ffffffffffffffff82111561196857611967611ae3565b5b61197182611b12565b9050602081019050919050565b60008190508160005260206000209050919050565b600081519050919050565b600082825260208201905092915050565b600082825260208201905092915050565b600082825260208201905092915050565b60006119dc826119ef565b9050919050565b60008115159050919050565b600073ffffffffffffffffffffffffffffffffffffffff82169050919050565b82818337600083830152505050565b60005b83811015611a3c578082015181840152602081019050611a21565b83811115611a4b576000848401525b50505050565b60006002820490506001821680611a6957607f821691505b60208210811415611a7d57611a7c611ab4565b5b50919050565b611a8c82611b12565b810181811067ffffffffffffffff82111715611aab57611aaa611ae3565b5b80604052505050565b7f4e487b7100000000000000000000000000000000000000000000000000000000600052602260045260246000fd5b7f4e487b7100000000000000000000000000000000000000000000000000000000600052604160045260246000fd5b6000601f19601f8301169050919050565b7f556e617574686f72697365642e00000000000000000000000000000000000000600082015250565b7f54656e616e740000000000000000000000000000000000000000000000000000600082015250565b7f556e617574686f72697365642041636365737300000000000000000000000000600082015250565b611ba7816119d1565b8114611bb257600080fd5b50565b611bbe816119e3565b8114611bc957600080fd5b5056fea26469706673582212207637c948f0342722a9681682f95e95929e9e41687baf9a311124a3a9832aa08064736f6c63430008040033",
  "linkReferences": {
    "contracts/Utils.sol": {
      "Utils": [
        {
          "length": 20,
          "start": 2855
        }
      ]
    }
  },
  "deployedLinkReferences": {
    "contracts/Utils.sol": {
      "Utils": [
        {
          "length": 20,
          "start": 2759
        }
      ]
    }
  }
}