{
  "_format": "hh-sol-artifact-1",
  "contractName": "Documents",
  "sourceName": "contracts/Documents.sol",
  "abi": [
    {
      "inputs": [
        {
          "internalType": "address",
          "name": "acctAddr",
          "type": "address"
        }
      ],
      "stateMutability": "nonpayable",
      "type": "constructor"
    },
    {
      "anonymous": false,
      "inputs": [
        {
          "indexed": false,
          "internalType": "address",
          "name": "user",
          "type": "address"
        }
      ],
      "name": "DocumentAdded",
      "type": "event"
    },
    {
      "anonymous": false,
      "inputs": [
        {
          "indexed": false,
          "internalType": "address",
          "name": "user",
          "type": "address"
        }
      ],
      "name": "DocumentCertified",
      "type": "event"
    },
    {
      "anonymous": false,
      "inputs": [
        {
          "indexed": false,
          "internalType": "address",
          "name": "user",
          "type": "address"
        }
      ],
      "name": "DocumentRejected",
      "type": "event"
    },
    {
      "anonymous": false,
      "inputs": [
        {
          "indexed": false,
          "internalType": "uint256",
          "name": "test",
          "type": "uint256"
        }
      ],
      "name": "DocumentTested",
      "type": "event"
    },
    {
      "anonymous": false,
      "inputs": [
        {
          "indexed": false,
          "internalType": "address",
          "name": "user",
          "type": "address"
        }
      ],
      "name": "DocumentVerified",
      "type": "event"
    },
    {
      "inputs": [],
      "name": "accountsAddress",
      "outputs": [
        {
          "internalType": "address",
          "name": "",
          "type": "address"
        }
      ],
      "stateMutability": "view",
      "type": "function"
    },
    {
      "inputs": [
        {
          "internalType": "address",
          "name": "_certifier",
          "type": "address"
        },
        {
          "internalType": "address",
          "name": "_verifier",
          "type": "address"
        },
        {
          "internalType": "string",
          "name": "_name",
          "type": "string"
        },
        {
          "internalType": "uint256",
          "name": "_fee",
          "type": "uint256"
        }
      ],
      "name": "addDocument",
      "outputs": [
        {
          "internalType": "bool",
          "name": "success",
          "type": "bool"
        }
      ],
      "stateMutability": "payable",
      "type": "function"
    },
    {
      "inputs": [
        {
          "internalType": "address",
          "name": "",
          "type": "address"
        }
      ],
      "name": "balances",
      "outputs": [
        {
          "internalType": "uint256",
          "name": "",
          "type": "uint256"
        }
      ],
      "stateMutability": "view",
      "type": "function"
    },
    {
      "inputs": [
        {
          "internalType": "uint256",
          "name": "_index",
          "type": "uint256"
        }
      ],
      "name": "getDocument",
      "outputs": [
        {
          "components": [
            {
              "internalType": "address",
              "name": "requester",
              "type": "address"
            },
            {
              "internalType": "address",
              "name": "verifier",
              "type": "address"
            },
            {
              "internalType": "address",
              "name": "certifier",
              "type": "address"
            },
            {
              "internalType": "string",
              "name": "name",
              "type": "string"
            },
            {
              "internalType": "string",
              "name": "imageURL",
              "type": "string"
            },
            {
              "internalType": "uint256",
              "name": "fee",
              "type": "uint256"
            },
            {
              "internalType": "uint256",
              "name": "index",
              "type": "uint256"
            },
            {
              "internalType": "enum Documents.Status",
              "name": "status",
              "type": "uint8"
            }
          ],
          "internalType": "struct Documents.Document",
          "name": "",
          "type": "tuple"
        }
      ],
      "stateMutability": "view",
      "type": "function"
    },
    {
      "inputs": [
        {
          "internalType": "address",
          "name": "_address",
          "type": "address"
        }
      ],
      "name": "getDocuments",
      "outputs": [
        {
          "components": [
            {
              "internalType": "address",
              "name": "requester",
              "type": "address"
            },
            {
              "internalType": "address",
              "name": "verifier",
              "type": "address"
            },
            {
              "internalType": "address",
              "name": "certifier",
              "type": "address"
            },
            {
              "internalType": "string",
              "name": "name",
              "type": "string"
            },
            {
              "internalType": "string",
              "name": "imageURL",
              "type": "string"
            },
            {
              "internalType": "uint256",
              "name": "fee",
              "type": "uint256"
            },
            {
              "internalType": "uint256",
              "name": "index",
              "type": "uint256"
            },
            {
              "internalType": "enum Documents.Status",
              "name": "status",
              "type": "uint8"
            }
          ],
          "internalType": "struct Documents.Document[]",
          "name": "",
          "type": "tuple[]"
        }
      ],
      "stateMutability": "view",
      "type": "function"
    },
    {
      "inputs": [
        {
          "internalType": "address",
          "name": "_address",
          "type": "address"
        }
      ],
      "name": "getMetrics",
      "outputs": [
        {
          "internalType": "uint256",
          "name": "",
          "type": "uint256"
        },
        {
          "internalType": "uint256",
          "name": "",
          "type": "uint256"
        },
        {
          "internalType": "uint256",
          "name": "",
          "type": "uint256"
        },
        {
          "internalType": "uint256",
          "name": "",
          "type": "uint256"
        },
        {
          "internalType": "uint256",
          "name": "",
          "type": "uint256"
        },
        {
          "internalType": "uint256",
          "name": "",
          "type": "uint256"
        }
      ],
      "stateMutability": "view",
      "type": "function"
    },
    {
      "inputs": [],
      "name": "kill",
      "outputs": [],
      "stateMutability": "payable",
      "type": "function"
    },
    {
      "inputs": [
        {
          "internalType": "string",
          "name": "_imageURL",
          "type": "string"
        },
        {
          "internalType": "uint256",
          "name": "_index",
          "type": "uint256"
        },
        {
          "internalType": "enum Documents.Status",
          "name": "status",
          "type": "uint8"
        }
      ],
      "name": "updateDocument",
      "outputs": [
        {
          "internalType": "bool",
          "name": "",
          "type": "bool"
        }
      ],
      "stateMutability": "payable",
      "type": "function"
    }
  ],
  "bytecode": "0x60806040523480156200001157600080fd5b506040516200559f3803806200559f8339818101604052810190620000379190620000d7565b33600160006101000a81548173ffffffffffffffffffffffffffffffffffffffff021916908373ffffffffffffffffffffffffffffffffffffffff16021790555080600260006101000a81548173ffffffffffffffffffffffffffffffffffffffff021916908373ffffffffffffffffffffffffffffffffffffffff1602179055505062000151565b600081519050620000d18162000137565b92915050565b600060208284031215620000ea57600080fd5b6000620000fa84828501620000c0565b91505092915050565b6000620001108262000117565b9050919050565b600073ffffffffffffffffffffffffffffffffffffffff82169050919050565b620001428162000103565b81146200014e57600080fd5b50565b61543e80620001616000396000f3fe60806040526004361061007b5760003560e01c8063478b48181161004e578063478b48181461014157806355cd7947146101715780638de47e0d1461019c578063de533d35146101de5761007b565b806327e235e31461008057806327f50a2d146100bd5780633f9b250a146100fa57806341c0e1b514610137575b600080fd5b34801561008c57600080fd5b506100a760048036038101906100a291906148b4565b61020e565b6040516100b49190614ebf565b60405180910390f35b3480156100c957600080fd5b506100e460048036038101906100df91906148b4565b610226565b6040516100f19190614da0565b60405180910390f35b34801561010657600080fd5b50610121600480360381019061011c9190614a00565b610fd5565b60405161012e9190614e9d565b60405180910390f35b61013f611d30565b005b61015b600480360381019061015691906148dd565b611dfb565b6040516101689190614dc2565b60405180910390f35b34801561017d57600080fd5b506101866123cc565b6040516101939190614d85565b60405180910390f35b3480156101a857600080fd5b506101c360048036038101906101be91906148b4565b6123f2565b6040516101d596959493929190614eda565b60405180910390f35b6101f860048036038101906101f39190614958565b6125a2565b6040516102059190614dc2565b60405180910390f35b60046020528060005260406000206000915090505481565b6060816000600360008373ffffffffffffffffffffffffffffffffffffffff1673ffffffffffffffffffffffffffffffffffffffff16815260200190815260200160002060050154116102ae576040517f08c379a00000000000000000000000000000000000000000000000000000000081526004016102a590614e7d565b60405180910390fd5b600080600360008673ffffffffffffffffffffffffffffffffffffffff1673ffffffffffffffffffffffffffffffffffffffff16815260200190815260200160002060050154905060008167ffffffffffffffff811115610338577f4e487b7100000000000000000000000000000000000000000000000000000000600052604160045260246000fd5b60405190808252806020026020018201604052801561037157816020015b61035e6144db565b8152602001906001900390816103565790505b50905060005b600080549050811015610fc8573373ffffffffffffffffffffffffffffffffffffffff16600082815481106103d5577f4e487b7100000000000000000000000000000000000000000000000000000000600052603260045260246000fd5b906000526020600020906008020160000160009054906101000a900473ffffffffffffffffffffffffffffffffffffffff1673ffffffffffffffffffffffffffffffffffffffff16141561079457600080828154811061045e577f4e487b7100000000000000000000000000000000000000000000000000000000600052603260045260246000fd5b9060005260206000209060080201905080604051806101000160405290816000820160009054906101000a900473ffffffffffffffffffffffffffffffffffffffff1673ffffffffffffffffffffffffffffffffffffffff1673ffffffffffffffffffffffffffffffffffffffff1681526020016001820160009054906101000a900473ffffffffffffffffffffffffffffffffffffffff1673ffffffffffffffffffffffffffffffffffffffff1673ffffffffffffffffffffffffffffffffffffffff1681526020016002820160009054906101000a900473ffffffffffffffffffffffffffffffffffffffff1673ffffffffffffffffffffffffffffffffffffffff1673ffffffffffffffffffffffffffffffffffffffff16815260200160038201805461058d90615130565b80601f01602080910402602001604051908101604052809291908181526020018280546105b990615130565b80156106065780601f106105db57610100808354040283529160200191610606565b820191906000526020600020905b8154815290600101906020018083116105e957829003601f168201915b5050505050815260200160048201805461061f90615130565b80601f016020809104026020016040519081016040528092919081815260200182805461064b90615130565b80156106985780601f1061066d57610100808354040283529160200191610698565b820191906000526020600020905b81548152906001019060200180831161067b57829003601f168201915b5050505050815260200160058201548152602001600682015481526020016007820160009054906101000a900460ff166004811115610700577f4e487b7100000000000000000000000000000000000000000000000000000000600052602160045260246000fd5b6004811115610738577f4e487b7100000000000000000000000000000000000000000000000000000000600052602160045260246000fd5b81525050838681518110610775577f4e487b7100000000000000000000000000000000000000000000000000000000600052603260045260246000fd5b6020026020010181905250848061078b90615193565b95505050610fb5565b8673ffffffffffffffffffffffffffffffffffffffff16600082815481106107e5577f4e487b7100000000000000000000000000000000000000000000000000000000600052603260045260246000fd5b906000526020600020906008020160010160009054906101000a900473ffffffffffffffffffffffffffffffffffffffff1673ffffffffffffffffffffffffffffffffffffffff161415610ba457600080828154811061086e577f4e487b7100000000000000000000000000000000000000000000000000000000600052603260045260246000fd5b9060005260206000209060080201905080604051806101000160405290816000820160009054906101000a900473ffffffffffffffffffffffffffffffffffffffff1673ffffffffffffffffffffffffffffffffffffffff1673ffffffffffffffffffffffffffffffffffffffff1681526020016001820160009054906101000a900473ffffffffffffffffffffffffffffffffffffffff1673ffffffffffffffffffffffffffffffffffffffff1673ffffffffffffffffffffffffffffffffffffffff1681526020016002820160009054906101000a900473ffffffffffffffffffffffffffffffffffffffff1673ffffffffffffffffffffffffffffffffffffffff1673ffffffffffffffffffffffffffffffffffffffff16815260200160038201805461099d90615130565b80601f01602080910402602001604051908101604052809291908181526020018280546109c990615130565b8015610a165780601f106109eb57610100808354040283529160200191610a16565b820191906000526020600020905b8154815290600101906020018083116109f957829003601f168201915b50505050508152602001600482018054610a2f90615130565b80601f0160208091040260200160405190810160405280929190818152602001828054610a5b90615130565b8015610aa85780601f10610a7d57610100808354040283529160200191610aa8565b820191906000526020600020905b815481529060010190602001808311610a8b57829003601f168201915b5050505050815260200160058201548152602001600682015481526020016007820160009054906101000a900460ff166004811115610b10577f4e487b7100000000000000000000000000000000000000000000000000000000600052602160045260246000fd5b6004811115610b48577f4e487b7100000000000000000000000000000000000000000000000000000000600052602160045260246000fd5b81525050838681518110610b85577f4e487b7100000000000000000000000000000000000000000000000000000000600052603260045260246000fd5b60200260200101819052508480610b9b90615193565b95505050610fb5565b8673ffffffffffffffffffffffffffffffffffffffff1660008281548110610bf5577f4e487b7100000000000000000000000000000000000000000000000000000000600052603260045260246000fd5b906000526020600020906008020160020160009054906101000a900473ffffffffffffffffffffffffffffffffffffffff1673ffffffffffffffffffffffffffffffffffffffff161415610fb4576000808281548110610c7e577f4e487b7100000000000000000000000000000000000000000000000000000000600052603260045260246000fd5b9060005260206000209060080201905080604051806101000160405290816000820160009054906101000a900473ffffffffffffffffffffffffffffffffffffffff1673ffffffffffffffffffffffffffffffffffffffff1673ffffffffffffffffffffffffffffffffffffffff1681526020016001820160009054906101000a900473ffffffffffffffffffffffffffffffffffffffff1673ffffffffffffffffffffffffffffffffffffffff1673ffffffffffffffffffffffffffffffffffffffff1681526020016002820160009054906101000a900473ffffffffffffffffffffffffffffffffffffffff1673ffffffffffffffffffffffffffffffffffffffff1673ffffffffffffffffffffffffffffffffffffffff168152602001600382018054610dad90615130565b80601f0160208091040260200160405190810160405280929190818152602001828054610dd990615130565b8015610e265780601f10610dfb57610100808354040283529160200191610e26565b820191906000526020600020905b815481529060010190602001808311610e0957829003601f168201915b50505050508152602001600482018054610e3f90615130565b80601f0160208091040260200160405190810160405280929190818152602001828054610e6b90615130565b8015610eb85780601f10610e8d57610100808354040283529160200191610eb8565b820191906000526020600020905b815481529060010190602001808311610e9b57829003601f168201915b5050505050815260200160058201548152602001600682015481526020016007820160009054906101000a900460ff166004811115610f20577f4e487b7100000000000000000000000000000000000000000000000000000000600052602160045260246000fd5b6004811115610f58577f4e487b7100000000000000000000000000000000000000000000000000000000600052602160045260246000fd5b81525050838681518110610f95577f4e487b7100000000000000000000000000000000000000000000000000000000600052603260045260246000fd5b60200260200101819052508480610fab90615193565b95505050610fb5565b5b8080610fc090615193565b915050610377565b5080945050505050919050565b610fdd6144db565b818060008281548110611019577f4e487b7100000000000000000000000000000000000000000000000000000000600052603260045260246000fd5b9060005260206000209060080201600601541461106b576040517f08c379a000000000000000000000000000000000000000000000000000000000815260040161106290614e5d565b60405180910390fd5b6110736144db565b3373ffffffffffffffffffffffffffffffffffffffff16600085815481106110c4577f4e487b7100000000000000000000000000000000000000000000000000000000600052603260045260246000fd5b906000526020600020906008020160000160009054906101000a900473ffffffffffffffffffffffffffffffffffffffff1673ffffffffffffffffffffffffffffffffffffffff16141561143757600080858154811061114d577f4e487b7100000000000000000000000000000000000000000000000000000000600052603260045260246000fd5b9060005260206000209060080201905080604051806101000160405290816000820160009054906101000a900473ffffffffffffffffffffffffffffffffffffffff1673ffffffffffffffffffffffffffffffffffffffff1673ffffffffffffffffffffffffffffffffffffffff1681526020016001820160009054906101000a900473ffffffffffffffffffffffffffffffffffffffff1673ffffffffffffffffffffffffffffffffffffffff1673ffffffffffffffffffffffffffffffffffffffff1681526020016002820160009054906101000a900473ffffffffffffffffffffffffffffffffffffffff1673ffffffffffffffffffffffffffffffffffffffff1673ffffffffffffffffffffffffffffffffffffffff16815260200160038201805461127c90615130565b80601f01602080910402602001604051908101604052809291908181526020018280546112a890615130565b80156112f55780601f106112ca576101008083540402835291602001916112f5565b820191906000526020600020905b8154815290600101906020018083116112d857829003601f168201915b5050505050815260200160048201805461130e90615130565b80601f016020809104026020016040519081016040528092919081815260200182805461133a90615130565b80156113875780601f1061135c57610100808354040283529160200191611387565b820191906000526020600020905b81548152906001019060200180831161136a57829003601f168201915b5050505050815260200160058201548152602001600682015481526020016007820160009054906101000a900460ff1660048111156113ef577f4e487b7100000000000000000000000000000000000000000000000000000000600052602160045260246000fd5b6004811115611427577f4e487b7100000000000000000000000000000000000000000000000000000000600052602160045260246000fd5b8152505091508193505050611d2a565b600260009054906101000a900473ffffffffffffffffffffffffffffffffffffffff1673ffffffffffffffffffffffffffffffffffffffff1663fbcbc0f1336040518263ffffffff1660e01b81526004016114929190614d85565b60006040518083038186803b1580156114aa57600080fd5b505afa1580156114be573d6000803e3d6000fd5b505050506040513d6000823e3d601f19601f820116820180604052508101906114e791906149bf565b60e0015173ffffffffffffffffffffffffffffffffffffffff166000858154811061153b577f4e487b7100000000000000000000000000000000000000000000000000000000600052603260045260246000fd5b906000526020600020906008020160010160009054906101000a900473ffffffffffffffffffffffffffffffffffffffff1673ffffffffffffffffffffffffffffffffffffffff1614156118ae5760008085815481106115c4577f4e487b7100000000000000000000000000000000000000000000000000000000600052603260045260246000fd5b9060005260206000209060080201905080604051806101000160405290816000820160009054906101000a900473ffffffffffffffffffffffffffffffffffffffff1673ffffffffffffffffffffffffffffffffffffffff1673ffffffffffffffffffffffffffffffffffffffff1681526020016001820160009054906101000a900473ffffffffffffffffffffffffffffffffffffffff1673ffffffffffffffffffffffffffffffffffffffff1673ffffffffffffffffffffffffffffffffffffffff1681526020016002820160009054906101000a900473ffffffffffffffffffffffffffffffffffffffff1673ffffffffffffffffffffffffffffffffffffffff1673ffffffffffffffffffffffffffffffffffffffff1681526020016003820180546116f390615130565b80601f016020809104026020016040519081016040528092919081815260200182805461171f90615130565b801561176c5780601f106117415761010080835404028352916020019161176c565b820191906000526020600020905b81548152906001019060200180831161174f57829003601f168201915b5050505050815260200160048201805461178590615130565b80601f01602080910402602001604051908101604052809291908181526020018280546117b190615130565b80156117fe5780601f106117d3576101008083540402835291602001916117fe565b820191906000526020600020905b8154815290600101906020018083116117e157829003601f168201915b5050505050815260200160058201548152602001600682015481526020016007820160009054906101000a900460ff166004811115611866577f4e487b7100000000000000000000000000000000000000000000000000000000600052602160045260246000fd5b600481111561189e577f4e487b7100000000000000000000000000000000000000000000000000000000600052602160045260246000fd5b8152505091508193505050611d2a565b600260009054906101000a900473ffffffffffffffffffffffffffffffffffffffff1673ffffffffffffffffffffffffffffffffffffffff1663fbcbc0f1336040518263ffffffff1660e01b81526004016119099190614d85565b60006040518083038186803b15801561192157600080fd5b505afa158015611935573d6000803e3d6000fd5b505050506040513d6000823e3d601f19601f8201168201806040525081019061195e91906149bf565b60e0015173ffffffffffffffffffffffffffffffffffffffff16600085815481106119b2577f4e487b7100000000000000000000000000000000000000000000000000000000600052603260045260246000fd5b906000526020600020906008020160020160009054906101000a900473ffffffffffffffffffffffffffffffffffffffff1673ffffffffffffffffffffffffffffffffffffffff161415611d25576000808581548110611a3b577f4e487b7100000000000000000000000000000000000000000000000000000000600052603260045260246000fd5b9060005260206000209060080201905080604051806101000160405290816000820160009054906101000a900473ffffffffffffffffffffffffffffffffffffffff1673ffffffffffffffffffffffffffffffffffffffff1673ffffffffffffffffffffffffffffffffffffffff1681526020016001820160009054906101000a900473ffffffffffffffffffffffffffffffffffffffff1673ffffffffffffffffffffffffffffffffffffffff1673ffffffffffffffffffffffffffffffffffffffff1681526020016002820160009054906101000a900473ffffffffffffffffffffffffffffffffffffffff1673ffffffffffffffffffffffffffffffffffffffff1673ffffffffffffffffffffffffffffffffffffffff168152602001600382018054611b6a90615130565b80601f0160208091040260200160405190810160405280929190818152602001828054611b9690615130565b8015611be35780601f10611bb857610100808354040283529160200191611be3565b820191906000526020600020905b815481529060010190602001808311611bc657829003601f168201915b50505050508152602001600482018054611bfc90615130565b80601f0160208091040260200160405190810160405280929190818152602001828054611c2890615130565b8015611c755780601f10611c4a57610100808354040283529160200191611c75565b820191906000526020600020905b815481529060010190602001808311611c5857829003601f168201915b5050505050815260200160058201548152602001600682015481526020016007820160009054906101000a900460ff166004811115611cdd577f4e487b7100000000000000000000000000000000000000000000000000000000600052602160045260246000fd5b6004811115611d15577f4e487b7100000000000000000000000000000000000000000000000000000000600052602160045260246000fd5b8152505091508193505050611d2a565b809250505b50919050565b600160009054906101000a900473ffffffffffffffffffffffffffffffffffffffff1673ffffffffffffffffffffffffffffffffffffffff163373ffffffffffffffffffffffffffffffffffffffff1614611dc0576040517f08c379a0000000000000000000000000000000000000000000000000000000008152600401611db790614dfd565b60405180910390fd5b600160009054906101000a900473ffffffffffffffffffffffffffffffffffffffff1673ffffffffffffffffffffffffffffffffffffffff16ff5b60008180341015611e41576040517f08c379a0000000000000000000000000000000000000000000000000000000008152600401611e3890614e3d565b60405180910390fd5b85837f789ba6f7cf2054e80c94618ed522f3f52ea04a6d85eac2eda1ff5b88c9a0e9a733604051611e729190614d85565b60405180910390a160006040518061010001604052803373ffffffffffffffffffffffffffffffffffffffff1681526020018973ffffffffffffffffffffffffffffffffffffffff1681526020018a73ffffffffffffffffffffffffffffffffffffffff168152602001888152602001604051806020016040528060008152508152602001878152602001600080549050815260200160006004811115611f42577f4e487b7100000000000000000000000000000000000000000000000000000000600052602160045260246000fd5b815250908060018154018082558091505060019003906000526020600020906008020160009091909190915060008201518160000160006101000a81548173ffffffffffffffffffffffffffffffffffffffff021916908373ffffffffffffffffffffffffffffffffffffffff16021790555060208201518160010160006101000a81548173ffffffffffffffffffffffffffffffffffffffff021916908373ffffffffffffffffffffffffffffffffffffffff16021790555060408201518160020160006101000a81548173ffffffffffffffffffffffffffffffffffffffff021916908373ffffffffffffffffffffffffffffffffffffffff160217905550606082015181600301908051906020019061205f92919061459a565b50608082015181600401908051906020019061207c92919061459a565b5060a0820151816005015560c0820151816006015560e08201518160070160006101000a81548160ff021916908360048111156120e2577f4e487b7100000000000000000000000000000000000000000000000000000000600052602160045260246000fd5b021790555050506001600360003373ffffffffffffffffffffffffffffffffffffffff1673ffffffffffffffffffffffffffffffffffffffff168152602001908152602001600020600001600082825461213c9190614ff7565b925050819055506001600360008a73ffffffffffffffffffffffffffffffffffffffff1673ffffffffffffffffffffffffffffffffffffffff16815260200190815260200160002060000160008282546121969190614ff7565b925050819055506001600360008973ffffffffffffffffffffffffffffffffffffffff1673ffffffffffffffffffffffffffffffffffffffff16815260200190815260200160002060000160008282546121f09190614ff7565b925050819055506001600360003373ffffffffffffffffffffffffffffffffffffffff1673ffffffffffffffffffffffffffffffffffffffff168152602001908152602001600020600501600082825461224a9190614ff7565b925050819055506001600360008a73ffffffffffffffffffffffffffffffffffffffff1673ffffffffffffffffffffffffffffffffffffffff16815260200190815260200160002060050160008282546122a49190614ff7565b925050819055506001600360008973ffffffffffffffffffffffffffffffffffffffff1673ffffffffffffffffffffffffffffffffffffffff16815260200190815260200160002060050160008282546122fe9190614ff7565b925050819055506001935060008134612317919061504d565b905060008111156123c0573373ffffffffffffffffffffffffffffffffffffffff166108fc829081150290604051600060405180830381858888f19350505050158015612368573d6000803e3d6000fd5b5081600460008573ffffffffffffffffffffffffffffffffffffffff1673ffffffffffffffffffffffffffffffffffffffff16815260200190815260200160002060008282546123b89190614ff7565b925050819055505b50505050949350505050565b600260009054906101000a900473ffffffffffffffffffffffffffffffffffffffff1681565b600080600080600080600360008873ffffffffffffffffffffffffffffffffffffffff1673ffffffffffffffffffffffffffffffffffffffff16815260200190815260200160002060000154600360008973ffffffffffffffffffffffffffffffffffffffff1673ffffffffffffffffffffffffffffffffffffffff16815260200190815260200160002060010154600360008a73ffffffffffffffffffffffffffffffffffffffff1673ffffffffffffffffffffffffffffffffffffffff16815260200190815260200160002060020154600360008b73ffffffffffffffffffffffffffffffffffffffff1673ffffffffffffffffffffffffffffffffffffffff16815260200190815260200160002060030154600360008c73ffffffffffffffffffffffffffffffffffffffff1673ffffffffffffffffffffffffffffffffffffffff16815260200190815260200160002060040154600360008d73ffffffffffffffffffffffffffffffffffffffff1673ffffffffffffffffffffffffffffffffffffffff1681526020019081526020016000206005015495509550955095509550955091939550919395565b600033600073ffffffffffffffffffffffffffffffffffffffff16600260009054906101000a900473ffffffffffffffffffffffffffffffffffffffff1673ffffffffffffffffffffffffffffffffffffffff1663fbcbc0f1836040518263ffffffff1660e01b81526004016126189190614d85565b60006040518083038186803b15801561263057600080fd5b505afa158015612644573d6000803e3d6000fd5b505050506040513d6000823e3d601f19601f8201168201806040525081019061266d91906149bf565b60e0015173ffffffffffffffffffffffffffffffffffffffff1614156126c8576040517f08c379a00000000000000000000000000000000000000000000000000000000081526004016126bf90614e1d565b60405180910390fd5b3373ffffffffffffffffffffffffffffffffffffffff16600260009054906101000a900473ffffffffffffffffffffffffffffffffffffffff1673ffffffffffffffffffffffffffffffffffffffff1663fbcbc0f1836040518263ffffffff1660e01b815260040161273a9190614d85565b60006040518083038186803b15801561275257600080fd5b505afa158015612766573d6000803e3d6000fd5b505050506040513d6000823e3d601f19601f8201168201806040525081019061278f91906149bf565b60e0015173ffffffffffffffffffffffffffffffffffffffff1614156127ea576040517f08c379a00000000000000000000000000000000000000000000000000000000081526004016127e190614ddd565b60405180910390fd5b600260009054906101000a900473ffffffffffffffffffffffffffffffffffffffff1673ffffffffffffffffffffffffffffffffffffffff1663fbcbc0f1336040518263ffffffff1660e01b81526004016128459190614d85565b60006040518083038186803b15801561285d57600080fd5b505afa158015612871573d6000803e3d6000fd5b505050506040513d6000823e3d601f19601f8201168201806040525081019061289a91906149bf565b60e0015173ffffffffffffffffffffffffffffffffffffffff16600085815481106128ee577f4e487b7100000000000000000000000000000000000000000000000000000000600052603260045260246000fd5b906000526020600020906008020160010160009054906101000a900473ffffffffffffffffffffffffffffffffffffffff1673ffffffffffffffffffffffffffffffffffffffff16148015612a0b575060016004811115612978577f4e487b7100000000000000000000000000000000000000000000000000000000600052602160045260246000fd5b600085815481106129b2577f4e487b7100000000000000000000000000000000000000000000000000000000600052603260045260246000fd5b906000526020600020906008020160070160009054906101000a900460ff166004811115612a09577f4e487b7100000000000000000000000000000000000000000000000000000000600052602160045260246000fd5b145b1561354b578260008581548110612a4b577f4e487b7100000000000000000000000000000000000000000000000000000000600052603260045260246000fd5b906000526020600020906008020160070160006101000a81548160ff02191690836004811115612aa4577f4e487b7100000000000000000000000000000000000000000000000000000000600052602160045260246000fd5b021790555060036004811115612ae3577f4e487b7100000000000000000000000000000000000000000000000000000000600052602160045260246000fd5b836004811115612b1c577f4e487b7100000000000000000000000000000000000000000000000000000000600052602160045260246000fd5b1415612ffa577f486862e915c1394d45f1072ee920f5ce06606f2b7453903ab5ef67bd212ab03a33604051612b519190614d85565b60405180910390a1600160036000808781548110612b98577f4e487b7100000000000000000000000000000000000000000000000000000000600052603260045260246000fd5b906000526020600020906008020160000160009054906101000a900473ffffffffffffffffffffffffffffffffffffffff1673ffffffffffffffffffffffffffffffffffffffff1673ffffffffffffffffffffffffffffffffffffffff1681526020019081526020016000206003016000828254612c169190614ff7565b92505081905550600160036000808781548110612c5c577f4e487b7100000000000000000000000000000000000000000000000000000000600052603260045260246000fd5b906000526020600020906008020160020160009054906101000a900473ffffffffffffffffffffffffffffffffffffffff1673ffffffffffffffffffffffffffffffffffffffff1673ffffffffffffffffffffffffffffffffffffffff1681526020019081526020016000206003016000828254612cda9190614ff7565b92505081905550600160036000808781548110612d20577f4e487b7100000000000000000000000000000000000000000000000000000000600052603260045260246000fd5b906000526020600020906008020160010160009054906101000a900473ffffffffffffffffffffffffffffffffffffffff1673ffffffffffffffffffffffffffffffffffffffff1673ffffffffffffffffffffffffffffffffffffffff1681526020019081526020016000206003016000828254612d9e9190614ff7565b92505081905550600160036000808781548110612de4577f4e487b7100000000000000000000000000000000000000000000000000000000600052603260045260246000fd5b906000526020600020906008020160000160009054906101000a900473ffffffffffffffffffffffffffffffffffffffff1673ffffffffffffffffffffffffffffffffffffffff1673ffffffffffffffffffffffffffffffffffffffff1681526020019081526020016000206001016000828254612e62919061504d565b92505081905550600160036000808781548110612ea8577f4e487b7100000000000000000000000000000000000000000000000000000000600052603260045260246000fd5b906000526020600020906008020160020160009054906101000a900473ffffffffffffffffffffffffffffffffffffffff1673ffffffffffffffffffffffffffffffffffffffff1673ffffffffffffffffffffffffffffffffffffffff1681526020019081526020016000206001016000828254612f26919061504d565b92505081905550600160036000808781548110612f6c577f4e487b7100000000000000000000000000000000000000000000000000000000600052603260045260246000fd5b906000526020600020906008020160010160009054906101000a900473ffffffffffffffffffffffffffffffffffffffff1673ffffffffffffffffffffffffffffffffffffffff1673ffffffffffffffffffffffffffffffffffffffff1681526020019081526020016000206001016000828254612fea919061504d565b92505081905550600191506144d3565b600480811115613033577f4e487b7100000000000000000000000000000000000000000000000000000000600052602160045260246000fd5b83600481111561306c577f4e487b7100000000000000000000000000000000000000000000000000000000600052602160045260246000fd5b141561354a577fe5fdbd1fd3a05dfdb6dcf40b664324044b04c84f41903d50ebcf96ff72e6df70336040516130a19190614d85565b60405180910390a16001600360008087815481106130e8577f4e487b7100000000000000000000000000000000000000000000000000000000600052603260045260246000fd5b906000526020600020906008020160000160009054906101000a900473ffffffffffffffffffffffffffffffffffffffff1673ffffffffffffffffffffffffffffffffffffffff1673ffffffffffffffffffffffffffffffffffffffff16815260200190815260200160002060040160008282546131669190614ff7565b925050819055506001600360008087815481106131ac577f4e487b7100000000000000000000000000000000000000000000000000000000600052603260045260246000fd5b906000526020600020906008020160020160009054906101000a900473ffffffffffffffffffffffffffffffffffffffff1673ffffffffffffffffffffffffffffffffffffffff1673ffffffffffffffffffffffffffffffffffffffff168152602001908152602001600020600401600082825461322a9190614ff7565b92505081905550600160036000808781548110613270577f4e487b7100000000000000000000000000000000000000000000000000000000600052603260045260246000fd5b906000526020600020906008020160010160009054906101000a900473ffffffffffffffffffffffffffffffffffffffff1673ffffffffffffffffffffffffffffffffffffffff1673ffffffffffffffffffffffffffffffffffffffff16815260200190815260200160002060040160008282546132ee9190614ff7565b92505081905550600160036000808781548110613334577f4e487b7100000000000000000000000000000000000000000000000000000000600052603260045260246000fd5b906000526020600020906008020160000160009054906101000a900473ffffffffffffffffffffffffffffffffffffffff1673ffffffffffffffffffffffffffffffffffffffff1673ffffffffffffffffffffffffffffffffffffffff16815260200190815260200160002060010160008282546133b2919061504d565b925050819055506001600360008087815481106133f8577f4e487b7100000000000000000000000000000000000000000000000000000000600052603260045260246000fd5b906000526020600020906008020160020160009054906101000a900473ffffffffffffffffffffffffffffffffffffffff1673ffffffffffffffffffffffffffffffffffffffff1673ffffffffffffffffffffffffffffffffffffffff1681526020019081526020016000206001016000828254613476919061504d565b925050819055506001600360008087815481106134bc577f4e487b7100000000000000000000000000000000000000000000000000000000600052603260045260246000fd5b906000526020600020906008020160010160009054906101000a900473ffffffffffffffffffffffffffffffffffffffff1673ffffffffffffffffffffffffffffffffffffffff1673ffffffffffffffffffffffffffffffffffffffff168152602001908152602001600020600101600082825461353a919061504d565b92505081905550600191506144d3565b5b600260009054906101000a900473ffffffffffffffffffffffffffffffffffffffff1673ffffffffffffffffffffffffffffffffffffffff1663fbcbc0f1336040518263ffffffff1660e01b81526004016135a69190614d85565b60006040518083038186803b1580156135be57600080fd5b505afa1580156135d2573d6000803e3d6000fd5b505050506040513d6000823e3d601f19601f820116820180604052508101906135fb91906149bf565b60e0015173ffffffffffffffffffffffffffffffffffffffff166000858154811061364f577f4e487b7100000000000000000000000000000000000000000000000000000000600052603260045260246000fd5b906000526020600020906008020160020160009054906101000a900473ffffffffffffffffffffffffffffffffffffffff1673ffffffffffffffffffffffffffffffffffffffff1614801561376c5750600060048111156136d9577f4e487b7100000000000000000000000000000000000000000000000000000000600052602160045260246000fd5b60008581548110613713577f4e487b7100000000000000000000000000000000000000000000000000000000600052603260045260246000fd5b906000526020600020906008020160070160009054906101000a900460ff16600481111561376a577f4e487b7100000000000000000000000000000000000000000000000000000000600052602160045260246000fd5b145b156144ce5782600085815481106137ac577f4e487b7100000000000000000000000000000000000000000000000000000000600052603260045260246000fd5b906000526020600020906008020160070160006101000a81548160ff02191690836004811115613805577f4e487b7100000000000000000000000000000000000000000000000000000000600052602160045260246000fd5b02179055508460008581548110613845577f4e487b7100000000000000000000000000000000000000000000000000000000600052603260045260246000fd5b9060005260206000209060080201600401908051906020019061386992919061459a565b50600160048111156138a4577f4e487b7100000000000000000000000000000000000000000000000000000000600052602160045260246000fd5b8360048111156138dd577f4e487b7100000000000000000000000000000000000000000000000000000000600052602160045260246000fd5b1415613dbb577f7296fec636cd80ddbf12deb1100ee1ab5a95e1d909ee9dfeddef3c7d0e68af9e336040516139129190614d85565b60405180910390a1600160036000808781548110613959577f4e487b7100000000000000000000000000000000000000000000000000000000600052603260045260246000fd5b906000526020600020906008020160000160009054906101000a900473ffffffffffffffffffffffffffffffffffffffff1673ffffffffffffffffffffffffffffffffffffffff1673ffffffffffffffffffffffffffffffffffffffff16815260200190815260200160002060010160008282546139d79190614ff7565b92505081905550600160036000808781548110613a1d577f4e487b7100000000000000000000000000000000000000000000000000000000600052603260045260246000fd5b906000526020600020906008020160020160009054906101000a900473ffffffffffffffffffffffffffffffffffffffff1673ffffffffffffffffffffffffffffffffffffffff1673ffffffffffffffffffffffffffffffffffffffff1681526020019081526020016000206001016000828254613a9b9190614ff7565b92505081905550600160036000808781548110613ae1577f4e487b7100000000000000000000000000000000000000000000000000000000600052603260045260246000fd5b906000526020600020906008020160010160009054906101000a900473ffffffffffffffffffffffffffffffffffffffff1673ffffffffffffffffffffffffffffffffffffffff1673ffffffffffffffffffffffffffffffffffffffff1681526020019081526020016000206001016000828254613b5f9190614ff7565b92505081905550600160036000808781548110613ba5577f4e487b7100000000000000000000000000000000000000000000000000000000600052603260045260246000fd5b906000526020600020906008020160000160009054906101000a900473ffffffffffffffffffffffffffffffffffffffff1673ffffffffffffffffffffffffffffffffffffffff1673ffffffffffffffffffffffffffffffffffffffff1681526020019081526020016000206000016000828254613c23919061504d565b92505081905550600160036000808781548110613c69577f4e487b7100000000000000000000000000000000000000000000000000000000600052603260045260246000fd5b906000526020600020906008020160020160009054906101000a900473ffffffffffffffffffffffffffffffffffffffff1673ffffffffffffffffffffffffffffffffffffffff1673ffffffffffffffffffffffffffffffffffffffff1681526020019081526020016000206000016000828254613ce7919061504d565b92505081905550600160036000808781548110613d2d577f4e487b7100000000000000000000000000000000000000000000000000000000600052603260045260246000fd5b906000526020600020906008020160010160009054906101000a900473ffffffffffffffffffffffffffffffffffffffff1673ffffffffffffffffffffffffffffffffffffffff1673ffffffffffffffffffffffffffffffffffffffff1681526020019081526020016000206000016000828254613dab919061504d565b92505081905550600191506144d3565b600480811115613df4577f4e487b7100000000000000000000000000000000000000000000000000000000600052602160045260246000fd5b836004811115613e2d577f4e487b7100000000000000000000000000000000000000000000000000000000600052602160045260246000fd5b14156144cd576000808581548110613e6e577f4e487b7100000000000000000000000000000000000000000000000000000000600052603260045260246000fd5b90600052602060002090600802016005015490507fe5fdbd1fd3a05dfdb6dcf40b664324044b04c84f41903d50ebcf96ff72e6df7033604051613eb19190614d85565b60405180910390a1600160036000808881548110613ef8577f4e487b7100000000000000000000000000000000000000000000000000000000600052603260045260246000fd5b906000526020600020906008020160000160009054906101000a900473ffffffffffffffffffffffffffffffffffffffff1673ffffffffffffffffffffffffffffffffffffffff1673ffffffffffffffffffffffffffffffffffffffff1681526020019081526020016000206002016000828254613f769190614ff7565b92505081905550600160036000808881548110613fbc577f4e487b7100000000000000000000000000000000000000000000000000000000600052603260045260246000fd5b906000526020600020906008020160020160009054906101000a900473ffffffffffffffffffffffffffffffffffffffff1673ffffffffffffffffffffffffffffffffffffffff1673ffffffffffffffffffffffffffffffffffffffff168152602001908152602001600020600201600082825461403a9190614ff7565b92505081905550600160036000808881548110614080577f4e487b7100000000000000000000000000000000000000000000000000000000600052603260045260246000fd5b906000526020600020906008020160010160009054906101000a900473ffffffffffffffffffffffffffffffffffffffff1673ffffffffffffffffffffffffffffffffffffffff1673ffffffffffffffffffffffffffffffffffffffff16815260200190815260200160002060020160008282546140fe9190614ff7565b92505081905550600160036000808881548110614144577f4e487b7100000000000000000000000000000000000000000000000000000000600052603260045260246000fd5b906000526020600020906008020160000160009054906101000a900473ffffffffffffffffffffffffffffffffffffffff1673ffffffffffffffffffffffffffffffffffffffff1673ffffffffffffffffffffffffffffffffffffffff16815260200190815260200160002060000160008282546141c2919061504d565b92505081905550600160036000808881548110614208577f4e487b7100000000000000000000000000000000000000000000000000000000600052603260045260246000fd5b906000526020600020906008020160020160009054906101000a900473ffffffffffffffffffffffffffffffffffffffff1673ffffffffffffffffffffffffffffffffffffffff1673ffffffffffffffffffffffffffffffffffffffff1681526020019081526020016000206000016000828254614286919061504d565b925050819055506001600360008088815481106142cc577f4e487b7100000000000000000000000000000000000000000000000000000000600052603260045260246000fd5b906000526020600020906008020160010160009054906101000a900473ffffffffffffffffffffffffffffffffffffffff1673ffffffffffffffffffffffffffffffffffffffff1673ffffffffffffffffffffffffffffffffffffffff168152602001908152602001600020600001600082825461434a919061504d565b92505081905550806004600080888154811061438f577f4e487b7100000000000000000000000000000000000000000000000000000000600052603260045260246000fd5b906000526020600020906008020160020160009054906101000a900473ffffffffffffffffffffffffffffffffffffffff1673ffffffffffffffffffffffffffffffffffffffff1673ffffffffffffffffffffffffffffffffffffffff168152602001908152602001600020600082825461440a919061504d565b925050819055506000858154811061444b577f4e487b7100000000000000000000000000000000000000000000000000000000600052603260045260246000fd5b906000526020600020906008020160000160009054906101000a900473ffffffffffffffffffffffffffffffffffffffff1673ffffffffffffffffffffffffffffffffffffffff166108fc829081150290604051600060405180830381858888f193505050501580156144c2573d6000803e3d6000fd5b5060019250506144d3565b5b600191505b509392505050565b604051806101000160405280600073ffffffffffffffffffffffffffffffffffffffff168152602001600073ffffffffffffffffffffffffffffffffffffffff168152602001600073ffffffffffffffffffffffffffffffffffffffff1681526020016060815260200160608152602001600081526020016000815260200160006004811115614594577f4e487b7100000000000000000000000000000000000000000000000000000000600052602160045260246000fd5b81525090565b8280546145a690615130565b90600052602060002090601f0160209004810192826145c8576000855561460f565b82601f106145e157805160ff191683800117855561460f565b8280016001018555821561460f579182015b8281111561460e5782518255916020019190600101906145f3565b5b50905061461c9190614620565b5090565b5b80821115614639576000816000905550600101614621565b5090565b600061465061464b84614f60565b614f3b565b90508281526020810184848401111561466857600080fd5b6146738482856150ee565b509392505050565b600061468e61468984614f60565b614f3b565b9050828152602081018484840111156146a657600080fd5b6146b18482856150fd565b509392505050565b6000813590506146c8816153b3565b92915050565b6000815190506146dd816153b3565b92915050565b6000815190506146f2816153ca565b92915050565b600081359050614707816153e1565b92915050565b600082601f83011261471e57600080fd5b813561472e84826020860161463d565b91505092915050565b600082601f83011261474857600080fd5b815161475884826020860161467b565b91505092915050565b6000610100828403121561477457600080fd5b61477f610100614f3b565b9050600082015167ffffffffffffffff81111561479b57600080fd5b6147a784828501614737565b600083015250602082015167ffffffffffffffff8111156147c757600080fd5b6147d384828501614737565b602083015250604082015167ffffffffffffffff8111156147f357600080fd5b6147ff84828501614737565b604083015250606082015167ffffffffffffffff81111561481f57600080fd5b61482b84828501614737565b606083015250608082015167ffffffffffffffff81111561484b57600080fd5b61485784828501614737565b60808301525060a061486b848285016146e3565b60a08301525060c061487f848285016146e3565b60c08301525060e0614893848285016146ce565b60e08301525092915050565b6000813590506148ae816153f1565b92915050565b6000602082840312156148c657600080fd5b60006148d4848285016146b9565b91505092915050565b600080600080608085870312156148f357600080fd5b6000614901878288016146b9565b9450506020614912878288016146b9565b935050604085013567ffffffffffffffff81111561492f57600080fd5b61493b8782880161470d565b925050606061494c8782880161489f565b91505092959194509250565b60008060006060848603121561496d57600080fd5b600084013567ffffffffffffffff81111561498757600080fd5b6149938682870161470d565b93505060206149a48682870161489f565b92505060406149b5868287016146f8565b9150509250925092565b6000602082840312156149d157600080fd5b600082015167ffffffffffffffff8111156149eb57600080fd5b6149f784828501614761565b91505092915050565b600060208284031215614a1257600080fd5b6000614a208482850161489f565b91505092915050565b6000614a358383614bf9565b905092915050565b614a4681615081565b82525050565b614a5581615081565b82525050565b6000614a6682614fa1565b614a708185614fc4565b935083602082028501614a8285614f91565b8060005b85811015614abe5784840389528151614a9f8582614a29565b9450614aaa83614fb7565b925060208a01995050600181019050614a86565b50829750879550505050505092915050565b614ad981615093565b82525050565b614ae8816150dc565b82525050565b6000614af982614fac565b614b038185614fd5565b9350614b138185602086016150fd565b614b1c81615298565b840191505092915050565b6000614b34601283614fe6565b9150614b3f826152a9565b602082019050919050565b6000614b57601483614fe6565b9150614b62826152d2565b602082019050919050565b6000614b7a601383614fe6565b9150614b85826152fb565b602082019050919050565b6000614b9d601183614fe6565b9150614ba882615324565b602082019050919050565b6000614bc0601283614fe6565b9150614bcb8261534d565b602082019050919050565b6000614be3601383614fe6565b9150614bee82615376565b602082019050919050565b600061010083016000830151614c126000860182614a3d565b506020830151614c256020860182614a3d565b506040830151614c386040860182614a3d565b5060608301518482036060860152614c508282614aee565b91505060808301518482036080860152614c6a8282614aee565b91505060a0830151614c7f60a0860182614d67565b5060c0830151614c9260c0860182614d67565b5060e0830151614ca560e0860182614adf565b508091505092915050565b600061010083016000830151614cc96000860182614a3d565b506020830151614cdc6020860182614a3d565b506040830151614cef6040860182614a3d565b5060608301518482036060860152614d078282614aee565b91505060808301518482036080860152614d218282614aee565b91505060a0830151614d3660a0860182614d67565b5060c0830151614d4960c0860182614d67565b5060e0830151614d5c60e0860182614adf565b508091505092915050565b614d70816150d2565b82525050565b614d7f816150d2565b82525050565b6000602082019050614d9a6000830184614a4c565b92915050565b60006020820190508181036000830152614dba8184614a5b565b905092915050565b6000602082019050614dd76000830184614ad0565b92915050565b60006020820190508181036000830152614df681614b27565b9050919050565b60006020820190508181036000830152614e1681614b4a565b9050919050565b60006020820190508181036000830152614e3681614b6d565b9050919050565b60006020820190508181036000830152614e5681614b90565b9050919050565b60006020820190508181036000830152614e7681614bb3565b9050919050565b60006020820190508181036000830152614e9681614bd6565b9050919050565b60006020820190508181036000830152614eb78184614cb0565b905092915050565b6000602082019050614ed46000830184614d76565b92915050565b600060c082019050614eef6000830189614d76565b614efc6020830188614d76565b614f096040830187614d76565b614f166060830186614d76565b614f236080830185614d76565b614f3060a0830184614d76565b979650505050505050565b6000614f45614f56565b9050614f518282615162565b919050565b6000604051905090565b600067ffffffffffffffff821115614f7b57614f7a615269565b5b614f8482615298565b9050602081019050919050565b6000819050602082019050919050565b600081519050919050565b600081519050919050565b6000602082019050919050565b600082825260208201905092915050565b600082825260208201905092915050565b600082825260208201905092915050565b6000615002826150d2565b915061500d836150d2565b9250827fffffffffffffffffffffffffffffffffffffffffffffffffffffffffffffffff03821115615042576150416151dc565b5b828201905092915050565b6000615058826150d2565b9150615063836150d2565b925082821015615076576150756151dc565b5b828203905092915050565b600061508c826150b2565b9050919050565b60008115159050919050565b60008190506150ad8261539f565b919050565b600073ffffffffffffffffffffffffffffffffffffffff82169050919050565b6000819050919050565b60006150e78261509f565b9050919050565b82818337600083830152505050565b60005b8381101561511b578082015181840152602081019050615100565b8381111561512a576000848401525b50505050565b6000600282049050600182168061514857607f821691505b6020821081141561515c5761515b61523a565b5b50919050565b61516b82615298565b810181811067ffffffffffffffff8211171561518a57615189615269565b5b80604052505050565b600061519e826150d2565b91507fffffffffffffffffffffffffffffffffffffffffffffffffffffffffffffffff8214156151d1576151d06151dc565b5b600182019050919050565b7f4e487b7100000000000000000000000000000000000000000000000000000000600052601160045260246000fd5b7f4e487b7100000000000000000000000000000000000000000000000000000000600052602160045260246000fd5b7f4e487b7100000000000000000000000000000000000000000000000000000000600052602260045260246000fd5b7f4e487b7100000000000000000000000000000000000000000000000000000000600052604160045260246000fd5b6000601f19601f8301169050919050565b7f556e617574686f72697365642061646d696e0000000000000000000000000000600082015250565b7f4f6e6c79206f776e65722063616e2063616c6c2e000000000000000000000000600082015250565b7f556e617574686f72697365642041636365737300000000000000000000000000600082015250565b7f496e73756666696369656e742066756e64000000000000000000000000000000600082015250565b7f446f63756d656e74206e6f7420666f756e640000000000000000000000000000600082015250565b7f446f63756d656e7473206e6f7420666f756e6400000000000000000000000000600082015250565b600581106153b0576153af61520b565b5b50565b6153bc81615081565b81146153c757600080fd5b50565b6153d381615093565b81146153de57600080fd5b50565b600581106153ee57600080fd5b50565b6153fa816150d2565b811461540557600080fd5b5056fea264697066735822122004b68c50caad8523f7c0c91848c45f8effd9f50e7221d679ed586fe32aa1c76864736f6c63430008040033",
  "linkReferences": {},
  "deployedLinkReferences": {}
}